:020000040000fa
:020000040100f9
:10000000f8ff0720bda60301fbcb0301b91a0401c9
:10001000cd1a0401e11a0401f51a040100000000e0
:100020000000000000000000000000005fb10301bc
:100030000bd00301000000005fb103015fb10301b9
:10004000c51204015fb103015fb103015fb1030198
:10005000890e04015fb103015fb103015fb10301c8
:100060005fb103019db703015fb103015fb10301fc
:10007000459903015fb10301919803015fb1030149
:10008000b9d40301fdf803015fb103015fb10301be
:100090005fb1030135f903015fb103015fb10301f2
:1000a000451204015fb103010000000000000000e0
:1000b000000000005fb103015fb10301f50e040110
:1000c0005fb103015fb103015fb103015fb10301e0
:1000d0005fb103015fb103015fb103015fb10301d0
:1000e0005fb103015fb103015fb103015fb10301c0
:1000f0005fb103015fb103015fb103015fb10301b0
:100100005fb103015fb103015fb103015fb103019f
:100110005fb103015fb103015fb103015fb103018f
:100120005fb103015fb103015fb103015fb103017f
:100130005fb103015fb103015fb103015fb103016f
:100140005fb103015fb103015fb103015fb103015f
:100150005fb103015fb103015fb103015fb103014f
:100160005fb103015fb103015fb103010000000053
:1001700000000000000000005fb103015fb1030157
:100180005fb103015fb103015fb103015fb103011f
:100190005fb103015fb103015fb103015fb103010f
:1001a000000000005fb103015fb103010000000027
:1001b00000000000000000005fb103015fb1030117
:020000040000fa
:020000040100f9
:1001c000f8b500bff8bc08bc9e46704745f0030177
:1001d000f8b500bff8bc08bc9e46704721f003018b
:020000040000fa
:020000040100f9
:0801e0001c0a030001000000ed
:020000040000fa
:020000040100f9
:1001e80030b908b50846034b1b695b69984708bdd9
:0801f800704700bfbc81062026
:020000040000fa
:020000040100f9
:1002000000800120150b0100190b0100190b0100e2
:10021000190b0100190b0100190b0100000000006f
:10022000000000000000000000000000190b0100a9
:10023000190b010000000000190b0100190b01004f
:10024000190b010000000000190b01000000000064
:10025000190b0100190b0100cda10000190b0100c1
:10026000e1b20000b9390000190b0100190b0100bf
:10027000358d0000c5e10000758d000019540000a7
:1002800000000000a50b0100190b01000000000098
:1002900000000000190b0100190b0100190b0100ef
:1002a00070b5044601f0bfff05460e2002f097f836
:1002b00006460e2002f068f8dff8580d4ff0807205
:1002c000016802fa04f40c40641ea441e44316b928
:1002d0000e2002f06ff825b14ff48040dff8381d92
:1002e0000860e00f70bd00002de9f041dff8a48d3b
:1002f0000546a979d8f8e84495f85002890841eafa
:10030000001104f8011b02f06ef90746012fa879cd
:10031000a98804d141ea801104f8011b08e0c9084a
:1003200041ea801104f8011ba888420104f8012b5e
:1003300002f066f90022012833db98f8d3344ff439
:1003400017715feac07c11fb03f308eb03010ad5c8
:1003500008f1080eea791ef803309b0943ea82038c
:10036000012204f8013b400800f01b8001eb020e63
:10037000eb1d9ef8086013f802c0521c01eb020e40
:10038000b60946ea8c0604f8016b13f802c09ef821
:100390000860521cb609401e46ea8c0604f8016b40
:1003a000e4d114f8010c00f0fc0004f8010c02f098
:1003b0001df9012f0cbf00f1100100f11801d8f850
:1003c000e80489b202f086f914f8012c002342ea0d
:1003d0009012800004f8012c20706370bde8f08159
:1003e000f0b50446dff8ac0cd0f8e80481b0a2798f
:1003f00094f850121209054642ea011205f8012b41
:10040000a288a179520942ea0112032105f8012bc1
:10041000a388de0005f8016b02f078f90646320980
:1004200005f8012b02f0f8f8014630010b0008bf77
:1004300005f8010b31d0e27940ea121001220229bd
:1004400005f8010b24db481ec30707d5237ae279a0
:100450001b0943ea0213022205f8013b400817d0aa
:10046000e71da31d17f802c09e5c521c4fea1c1c1e
:100470004cea061c05f801cb17f802c09e5c521c22
:10048000401e4fea1c1c4cea061c05f801cbe7d1c4
:10049000a01d415c090105f8011b00222a7001b072
:1004a000f0bd70b5dff8ec5b401cd5f8f8444010a7
:1004b000401e82b2d5f8fc14204602f049f9d5f866
:1004c000f0244ff4006102f50065284602f052f96d
:1004d00002f089f801280ad1c022214605f5e8601a
:1004e00002f04cf9c42204f1c00128460ce04ff49c
:1004f000c2763246214605f5cc6002f03ff932461d
:1005000004f5c27105f12000bde8704002f036b973
:100510002de9f0430446dff87c6bd6f8f00487b091
:100520000d46174602f099f98146062002f0c2f9fd
:1005300080464ff400724146484602f0d1f94ff42c
:1005400000724146404602f088fa96f8d104cdf890
:1005500000904ff40c69d6f8e024cdf80c800346e7
:1005600019fb03f31344019345b100280fbf48461c
:10057000401ec0b219fb00f0104402e0012002f05e
:10058000a1f90cb14ff400694844001f002f0290fc
:1005900019bf00210022382108228df818108df88b
:1005a000192002f020f801280cbf41f22a0440f67d
:1005b0002d34182001f0e8fedff8980b07681820aa
:1005c00001f0f8fe20463fb2002f04d400213a4645
:1005d00002f04afa04e07f4200213a4602f054fa5f
:1005e0000d46044696f8d3144ff4177010fb01f132
:1005f000771802f037fc97f85272dff85ccb3cf8c2
:1006000017104843a0fb042300fb0533c1176846bd
:10061000120e01fb04334ff4007442ea032243f646
:10062000ff710492adf81640adf8141002f038fcda
:1006300096f8d10407b0401cc1b2022908bf0020bf
:1006400086f8d10496f8d004411e86f8d014bde88f
:10065000f083f0b583b004460e46dff8385a01f057
:10066000c2ff0146d5f8f80402f050fc01f0afffdc
:100670000746d5f8f81400916846adf8047002f00a
:1006800067fc3846fff70dff0121200001d006b9b5
:10069000002195f8d3644ff41773002213fb06f67c
:1006a000ab1993f8570230b195f8d054012d02bf21
:1006b0009879002801222046fff72aff03b0f0bdf9
:1006c00070b584b0054602f0a2fc280002d101f00a
:1006d000afff01e001f0c0ff0646dff8b849f21da8
:1006e000d4f8ec14d4f8e8045205120e760402f0a3
:1006f0007dfcd4f8e414d4f8ec040023320c02f0ae
:100700008dfc1db902200222032302e004200122f5
:100710000b2384f8d004d4f8e4040090d4f8f45403
:10072000019568468df80a208df8093002f0defc4c
:10073000d4f8f40402f0f6fb04b070bd30b581b01b
:100740000546a879dff84c4984f8d00401f045ff4c
:1007500095f85012491c01f0030111fb00f195f8c6
:100760005402002889b214bf0909c908a4f8d81492
:1007700001f030ff95f84f1201b9400080b202f04d
:1007800075fc002001b084f8d20430bd2de9f041a1
:1007900084b00546dff8fc48aa7994f8d01495f89f
:1007a0005502511a08b10906890eb4f8d864c9b2c5
:1007b00095f84e2295f85402d4f8ec74714389b23e
:1007c00089182944324670b1d4f8e884c91d4046de
:1007d00001f0d4ff32463946404602f007fcb4f837
:1007e000d864360104e0c91d384601f0c7fff600a1
:1007f000d4f8e414d4f8ec040123b2b202f00efcf5
:1008000095f85402d4f8f434d4f8e41460b195f8af
:10081000506201278df80a7068468df809600091d2
:10082000019302f063fc04e0b4f8d824184601f008
:10083000a5ffd4f8f40402f07efb95f8550200b150
:10084000042084f8d20404b0bde8f08170b50546f8
:10085000dff8404894f8d20482b010b92846fff778
:1008600095ff01f0c0fe014695f85022d4f8f80437
:1008700002f04ffb01f0abfe0646d4f8f8140091ed
:100880006846adf8046002f063fb3046fff709feee
:1008900095f85702002220b194f8d014012908bf1e
:1008a000012201210020fff733fe94f8d20410b199
:1008b000401e84f8d20402b070bdf0b587b0064681
:1008c0000d46144602f0d4fadff8c82702eb802167
:1008d00002ebc0204eb900f5a16343f2085694f82c
:1008e00056020e4438b9082706e041f6085344f290
:1008f000081603440e440027009303968df81970e0
:100900001db1012001f0deff12e092f8d1144ff486
:100910000c60d2f8e0340d46491c10fb05f582f856
:10092000d114c9b25819022904bf002182f8d11488
:10093000019002f097fa94f85232dff81c2832f84e
:1009400013104ff40072adf81620002343f6ff7227
:100950008df81830adf814204843c117000a40ea5a
:1009600001600490684602f09bfa07b0f0bd0000f9
:100970004ff4177270b5dff81c4788b094f8d304b1
:1009800012fb00f0251895f851329b1e052b73d8e9
:10099000dfe803f02d346203156800210020fff723
:1009a00058fe94f8d014002966d1a87970b1284671
:1009b000fff7c4fe062185f8511208b070bd284625
:1009c000fff744ff94f8d004002855d194f8d104df
:1009d00000280cbf0120401ec0b202f0fafe072022
:1009e000022185f8510208b084f8d01470bd2a465f
:1009f00000210220fff761ff03203be094f8d104bf
:100a00004ff40c61d4f8e034dff850670496002806
:100a10000fbf0a46421ed2b211fb02f21a4411fb6a
:100a200000f000924ff40072adf81620002103444c
:100a30000822019368468df818108df8192002f0ed
:100a40002ffa94f8d104401cc1b2022908bf00203b
:100a500084f8d10404200de002210120fff7f9fd04
:100a6000052007e094f8d014481e84f8d004c0b2e2
:100a700010b9082085f8510208b070bddff8e01603
:100a800091f8d32402eb420301eb8301c1f8b804cf
:100a900070472de9f04381b00746be88b6f5007f68
:100aa00065da7c7a200002d101f0aafd01e001f0b4
:100ab000b3fdfb7a4ff41771dff8d82511fb03f370
:100ac00002eb030909eb060289f84f42002489f87a
:100ad0004e02d51dff79b04289f850724bda361ab2
:100ae000b80810f001004ff0080889f8540205d04a
:100af000761c05f8014b76004ff0100801f06dfdf3
:100b000007f00301491cc9b210fb01f0f10089b2e2
:100b100080b291fbf0f200fb121292b2bab14144e2
:100b2000002289b22a7091fbf0f200fb1212641cc1
:100b300092b262b1414489b291fbf0f200fb121211
:100b400000236b70641cad1c92b2002ae7d191fbac
:100b5000f0f8ff0817f0010789f855721abf4fea3d
:100b60008808fc203f201ffa88f1884209d2002023
:100b700001b0bde8f083a046841ba1b2284601f075
:100b8000f9fda9f80440012089f8068001b0bde80c
:100b9000f08300002de9f0430c46dff8f88488f874
:100ba000d3044ff4177111fb00f081b008eb00067d
:100bb00096f8529202f0bdfe814509dbb9f1290f8a
:100bc00006da98f8d50418b90021012002f090f84f
:100bd00096f85002022818bf012832d102f045f9d8
:100be00000ee100a96f85002bbee440a022807bf36
:100bf000dfed1a0a0327dfed1a0a0127f4ee400a97
:100c0000f1ee10fa1dd502f0a7fef3ee040a20ee75
:100c1000200a02f0f3febdeec00a10ee105a7d1954
:100c2000e8b281450ddaedb286f8525202f081fe4b
:100c3000854206db98f8d50418b90021012002f09e
:100c400057f896f84f023460324601b0bde8f043e1
:100c5000022818bf002001212fe600007d3f353f0c
:100c60009318643f2de9f0434ff41779dff824849b
:100c700098f8d314002087b088f8d10419fb01f14b
:100c800008eb010696f84f72022f06d0032f30d0e2
:100c900030460024fff728fb5ae0012001f012fe45
:100ca00098f8d12400904ff40c61d8f8e004dff8f4
:100cb000ac34049311fb02f28118002201914ff42d
:100cc0000071adf8161008218df8182068468df8cf
:100cd000191002f0e5f898f8d104401cc1b20229bd
:100ce00008bf002088f8d1043046fff779fb0224c2
:100cf0002ee0b079d8f8e844083080b23f28a8bf89
:100d00003f20810841f040018001217040f0040043
:100d100069216070e822a170af20e2702f2120715c
:100d20003e226171ae20a271a821e071217201f012
:100d30005dfc103081b2d8f8e80401f0cbfc227ad7
:100d4000002342ea9012800022726072a372002493
:100d50002046fff7b5fc0021204602f030f902f0f2
:100d600087f80146d8f8fc0401f0a2ff98f8d154a6
:100d700021460120fff76dfcc5f10205b5f1010424
:100d800098f8d00400281cbfe0b2002800f0b28020
:100d900001f029fc0146d8f8f80402f0b7f801f098
:100da00016fc0546d8f8f81400916846adf80450d2
:100db00002f0cef82846fff774fb98f8d31400220f
:100dc00019fb01f1414491f8570230b198f8d03441
:100dd000012b02bf88790028012201210020fff7a2
:100de00097fb641ecce7d8f8e03411fb00f0dff885
:100df0006c73002104971a44034400924ff400726c
:100e0000adf816200822019368468df818108df869
:100e1000192002f045f898f8d104401cc1b202290b
:100e200008bf002088f8d104641ee0b2a8b30221f4
:100e30000120fff70efc00bf98f8d004641ea0b399
:100e4000e0b2002851d001f0cefb0146d8f8f804fa
:100e500002f05cf801f0bbfb0746d8f8f8140091eb
:100e60006846adf8047002f073f83846fff719fbd6
:100e700098f8d314002219fb01f1414491f857026c
:100e800030b198f8d034012b02bf887900280122b4
:100e900001210020fff73cfbcee7042502e00325fb
:100ea00000e0022598f8d004f8b9b17900296cd097
:100eb0003046fff743fc03e03046641efff7c6fcf4
:100ec00098f8d004002860d0e0b20028f4d10625bc
:100ed00086f8515207b0bde8f083c0b2c4f10204f5
:100ee00002f077fc072588f8d04486f8515207b005
:100ef000bde8f0830525032fd4d13046fff770fa03
:100f000002f085f801f0a8fb0746fa1dd8f8ec14aa
:100f1000d8f8e8045205120e7f0402f067f8d8f8fa
:100f2000e414d8f8ec0400233a0c02f077f804211a
:100f3000d8f8e42488f8d014d8f8f41400920122e8
:100f400001910b218df80a2068468df8091002f0f6
:100f5000cdf8d8f8f40401f0e5ffe0b20028a0d005
:100f6000324600210220641efff7a7fce0b20028f1
:100f700095d098f8d1044ff40c6100280fbf0a46b1
:100f8000421ed2b211fb02f22de798f8d1040028dc
:100f90000cbf0120401ea0e72de9f04381b0804640
:100fa0008946164602f00efc404508bf012402d0d7
:100fb0000024022802db0e2001f0fcf94ff4177127
:100fc000674d11fb08f16f1897f85102f0b1042e2c
:100fd00003d04046fff764f9c0b9002008eb480190
:100fe00087f8510205eb810080f8c164c0f8bc9419
:100ff00097f84f2280f8c34480f8c024d5f8dc1459
:1010000001b000f59760bde8f043084701b0bde8c6
:10101000f08300003c40004000e100e02de9f04199
:101020000d4680464ff41771dff8746e11fb08f11e
:10103000771897f8580220b100210c2487f858122d
:1010400021e097f85102092808bf05241cd0082880
:1010500014d108eb480397f8521206eb83023d685f
:101060000124d2f8b80401f051fd02f062fc97f8b7
:101070005212814208d286f8d54405e00b2402f0d2
:10108000a1fb404500d13d68224629464046bde8c7
:10109000f04181e7e4db002003227de704227be7c7
:1010a00010b502f08ffb0246022a0dda4ff41771d9
:1010b000dff8ec4d11fb02f20123a11881f8583240
:1010c000bde8104002f054bb10bd00000378d80703
:1010d00031d44fea131c4ff47a7212fb0cfcdff888
:1010e000c00dd0f80025d0f80405a1eb0c018a1a38
:1010f000091ac3f3420003001dd0c30707d5002a15
:1011000001d4002919dda1eb0c01a2eb0c0240086f
:1011100011d0002a02d4002940f30f80b2eb0c0258
:10112000a1eb0c0101d4002907dd401ea1eb0c014d
:10113000a2eb0c02edd10020704701207047dff8d0
:10114000601d4ff4177091f8d32410fb02f2881839
:1011500080797047480010e0580a01000000ffff46
:10116000e4db00202de9f04f89b000218df8061056
:10117000dff82c5dd5f8f0144ff42054adf804409e
:1011800068464ff400664ff4c27901f500620092a0
:1011900002f0b7fcd5f8f00401f043fb0746062245
:1011a0004ff4007101f067fb192001f083fb324618
:1011b000394601f0e3fa0221adf804408df806103b
:1011c000d5f8f014684601f50062009202f099fc2f
:1011d000d5f8f00401f025fb044606224ff4007117
:1011e00001f049fb1a2001f065fb3246214601f06f
:1011f000c5fa192001f05efb0746d5f8f00400217e
:1012000000f50064d5f8fc0401f052fd01f0ebf9a3
:10121000012823d1c42239462046c43701f0aefa52
:10122000d5f8fc04182200f16001204601f090fa84
:1012300040f27c62394604f1c40001f0affac022ea
:1012400007f27c6104f5e86001f0a8fad5f8fc1417
:10125000172204f5e86001f07bfa34e020223946d9
:101260002046203701f08afa4a46394604f1200028
:1012700007f5c27701f092fad5f8fc04302200f1ac
:10128000c20104f1200001f063fa40f2bc42394689
:1012900004f5d27007f2bc4701f080fa4a4639469d
:1012a00004f5cc6001f07afad5f8fc14302204f58c
:1012b000cc6001f04dfa07f5c27004f2e4719cc8ed
:1012c0009cc11cc81cc1d5f8f0044ff6ff7801f092
:1012d000c4fa0446062001f0edfa82464ff400728b
:1012e0005146204601f0fcfa4ff400725146504638
:1012f00001f0b3fb05f5a162009401921820cdf82e
:101300000ca043f6705401f03ff8dff8fc0d0768bd
:10131000182001f04ff8adf8148068463fb2002f56
:1013200052bf24fa07f77f4204fa07f704974ff4f5
:1013300000770021adf81670adf8181001f0b0fd7f
:10134000324605f5a161504601f018fa3a46514679
:10135000504601f0c5fa43f2085029183a46504663
:1013600001f07bfb1a2001f0a5fa8346d5f8f004c2
:10137000002100f5006ad5f8fc0401f099fc01f0a9
:1013800032f9012824d1c422594650460bf1c40b2e
:1013900001f0f4f9d5f8fc04182200f16001504680
:1013a00001f0d6f940f27c6259460af1c40001f01e
:1013b000f5f9c0220bf27c610af5e86001f0eef964
:1013c000d5f8fc1417220af5e86001f0c1f939e0fc
:1013d0002022594650460bf1200b01f0cff94a4626
:1013e00059460af120000bf5c27b01f0d7f9d5f878
:1013f000fc04302200f1c2010af1200001f0a8f93a
:1014000040f2bc4259460af5d2700bf2bc4b01f0d7
:10141000c5f94a4659460af5cc6001f0bff9d5f83e
:10142000fc1430220af5cc6001f092f90bf5c27081
:101430000af2e471b0e80c50a1e80c50b0e80c10ce
:10144000a1e80c10d5f8f00401f007fa8346062055
:1014500001f030fa82463a465146584601f040fac9
:101460003a465146504601f0f8facdf804b0dff89c
:1014700068bdcdf808b01820cdf810a000f084ffaa
:10148000dff8840c01681820009100f093ffbdf98b
:101490000010adf81a70adf8188001a8002952bfed
:1014a00024fa01f1494204fa01f100220591adf854
:1014b0001c2001f0f5fc32465946504601f05ef919
:1014c0003a465146504601f00bfa44f208102918ea
:1014d0003a46504601f0c1fa192001f0ebf9834673
:1014e000d5f8f004012100f5006ad5f8fc0401f0fc
:1014f000dffb01f078f8012824d1c4225946504678
:101500000bf1c40b01f03af9d5f8fc04182200f1f4
:101510006001504601f01cf940f27c6259460af124
:10152000c40001f03bf9c0220bf27c610af5e860cf
:1015300001f034f9d5f8fc1417220af5e86001f03f
:1015400007f939e02022594650460bf1200b01f0f3
:1015500015f94a4659460af120000bf5c27b01f005
:101560001df9d5f8fc04302200f1c2010af1200077
:1015700001f0eef840f2bc4259460af5d2700bf287
:10158000bc4b01f00bf94a4659460af5cc6001f014
:1015900005f9d5f8fc1430220af5cc6001f0d8f832
:1015a0000bf5c2700af2e471b0e80c50a1e80c50df
:1015b000b0e80c10a1e80c10d5f8f00401f04df9da
:1015c0008346062001f076f982463a46514658464f
:1015d00001f086f93a465146504601f03efa05f6ca
:1015e0000852cdf800b001921820cdf80ca000f000
:1015f000cbfedff8141b1820d1f800b000f0dafea3
:10160000adf8167068460ffa8bfbbbf1000fadf812
:10161000148052bf24fa0bfbcbf1000b04fa0bfb36
:101620000022cdf810b0adf8182001f039fc324698
:1016300005f60851504601f0a1f83a465146504689
:1016400001f04ef943f6081029183a46504601f0c9
:1016500004fa1a2001f02ef98346d5f8f00401218e
:1016600000f5006ad5f8fc0401f022fb00f0bbff96
:10167000012824d1c422594650460bf1c40b01f075
:101680007df8d5f8fc04182200f16001504601f005
:101690005ff840f27c6259460af1c40001f07ef81e
:1016a000c0220bf27c610af5e86001f077f8d5f80a
:1016b000fc1417220af5e86001f04af839e020220c
:1016c000594650460bf1200b01f058f84a4659464e
:1016d0000af120000bf5c27b01f060f8d5f8fc049c
:1016e000302200f1c2010af1200001f031f840f28d
:1016f000bc4259460af5d2700bf2bc4b01f04ef8d1
:101700004a4659460af5cc6001f048f8d5f8fc1471
:1017100030220af5cc6001f01bf80bf5c2700af21a
:10172000e471b0e80c50a1e80c50b0e80c10a1e84e
:101730000c10d5f8f00401f090f88346062001f073
:10174000b9f882463a465146584601f0c9f83a4639
:101750005146504601f081f9cdf804b0dff87cba6b
:10176000cdf808b01820cdf810a000f00dfedff87d
:10177000980901681820009100f01cfebdf90010c6
:10178000adf81a70adf8188001a8002952bf24faec
:1017900001f1494204fa01f100220591adf81c2043
:1017a00001f07efb32465946504600f0e7ff3a46cc
:1017b0005146504601f094f844f2085029183a4630
:1017c000504601f04af9192001f074f88346d5f823
:1017d000f004022100f5006ad5f8fc0401f068fa73
:1017e00000f001ff012824d1c422594650460bf1d4
:1017f000c40b00f0c3ffd5f8fc04182200f160010f
:10180000504600f0a5ff40f27c6259460af1c40040
:1018100000f0c4ffc0220bf27c610af5e86000f022
:10182000bdffd5f8fc1417220af5e86000f090ff20
:1018300039e02022594650460bf1200b00f09eff64
:101840004a4659460af120000bf5c27b00f0a6ff7c
:10185000d5f8fc04302200f1c2010af1200000f0aa
:1018600077ff40f2bc4259460af5d2700bf2bc4bee
:1018700000f094ff4a4659460af5cc6000f08eff0e
:10188000d5f8fc1430220af5cc6000f061ff0bf5ae
:10189000c2700af2e471b0e80c50a1e80c50b0e854
:1018a0000c10a1e80c10d5f8f00400f0d6ff834628
:1018b000062000f0ffff82463a465146584601f0a6
:1018c0000ff83a465146504601f0c7f8cdf804b03b
:1018d000dff80cb9cdf808b01820cdf810a000f052
:1018e00053fddff8240801681820009100f062fd24
:1018f000bdf90010adf81a70adf8188001a80029e4
:1019000052bf24fa01f1494204fa01f10022059183
:10191000adf81c2001f0c4fa32465946504600f09a
:101920002dff3a465146504600f0daff43f6085084
:1019300029183a46504601f090f81a2000f0bafff4
:101940008346d5f8f004022100f5006ad5f8fc04be
:1019500001f0aef900f047fe012824d1c422594617
:1019600050460bf1c40900f009ffd5f8fc04182219
:1019700000f16001504600f0ebfe40f27c62494607
:101980000af1c40000f00affc02209f27c610af5e6
:10199000e86000f003ffd5f8fc1417220af5e860b0
:1019a00000f0d6fe39e02022594650460bf1200bbc
:1019b00000f0e4fe4a4659460af120000bf5c27bce
:1019c00000f0ecfed5f8fc04302200f1c2010af16f
:1019d000200000f0bdfe40f2bc4259460af5d2702c
:1019e0000bf2bc4b00f0dafe4a4659460af5cc60d1
:1019f00000f0d4fed5f8fc1430220af5cc6000f0db
:101a0000a7fe0bf5c2700af2e471b0e80c50a1e831
:101a10000c50b0e80c10a1e80c10d5f8f00400f060
:101a20001cff8246062000f045ff81463a464946a3
:101a3000504600f055ff3a464946484601f00df839
:101a4000cdf800a042f6085205eb020acdf80c9042
:101a5000cdf804a0182000f097fcdff8ac06d0f811
:101a600000b0182000f0a6fcadf8167068460ffa1a
:101a70008bfbbbf1000fadf8148052bf24fa0bf4be
:101a8000cbf1000b04fa0bf400220494adf81820fb
:101a900001f006fa32465146484600f06ffe3a46db
:101aa0004946484600f01cff44f6081029183a46fb
:101ab000484600f0d2ff09b0bde8f08f2de9f04fa5
:101ac000074689b01920dff8d88300f0f3fed8f874
:101ad000f0140546d8f8fc0401f50064394601f01d
:101ae000e7f800f080fd012823d1c42229462046d2
:101af000c43500f043fed8f8fc04182200f1600160
:101b0000204600f025fe40f27c62294604f1c40024
:101b100000f044fec02205f27c6104f5e86000f0ac
:101b20003dfed8f8fc14172204f5e86000f010fe22
:101b300037e020222946204605f1200600f01efe4f
:101b40004ff4c2752a46314604f1200000f026fe0b
:101b5000d8f8fc04302206f5c27600f1c20104f187
:101b6000200000f0f5fd40f2bc42314604f5d27091
:101b700006f2bc4600f012fe2a46314604f5cc605f
:101b800000f00cfed8f8fc14302204f5cc6000f014
:101b9000dffd06f5c27004f2e4713cc83cc11cc80c
:101ba0001cc1d8f8f00408ebc72b4ff6ff7600f005
:101bb00054fe0446062000f07dfe81464ff400727c
:101bc0004946204600f08cfe4ff4007249464846d4
:101bd00000f043ff0bf5a162019402921820cdf8aa
:101be000109043f6705400f0cffbdff81c05056839
:101bf000182000f0dffbadf8186001a82db2002d11
:101c000052bf24fa05f56d4204fa05f505954ff427
:101c100000750021adf81a50adf81c1001f040f924
:101c20004ff400620bf5a161484600f0a7fd2a467b
:101c30004946484600f054fe08eb872043f208531b
:101c400000902a46c118484600f007ff1a2000f00d
:101c500031fe8246d8f8f004394600f50069d8f81c
:101c6000fc0401f025f800f0befc012824d1c422b8
:101c7000514648460af1c40700f080fdd8f8fc043c
:101c8000182200f16001484600f062fd40f27c62db
:101c9000394609f1c40000f081fdc02207f27c61e1
:101ca00009f5e86000f07afdd8f8fc14172209f570
:101cb000e86000f04dfd39e02022514648460af127
:101cc000200a00f05bfd4ff4c2773a46514609f115
:101cd000200000f063fdd8f8fc0430220af5c27a37
:101ce00000f1c20109f1200000f032fd40f2bc42d7
:101cf000514609f5d2700af2bc4a00f04ffd3a464f
:101d0000514609f5cc6000f049fdd8f8fc143022aa
:101d100009f5cc6000f01cfd0af5c27009f2e4710f
:101d2000b0e88c10a1e88c108cc88cc1d8f8f004f5
:101d300000f093fd8046062000f0bcfd07462a46d1
:101d40003946404600f0ccfd2a463946384600f078
:101d500084fecdf8048041f608520beb020804978c
:101d6000cdf80880182000f00ffbdff89c03d0f8b6
:101d70000090182000f01efbadf81a5001a80ffad1
:101d800089f9b9f1000fadf8186052bf24fa09f4cf
:101d9000c9f1000904fa09f400220594adf81c20e9
:101da00001f07ef84ff400624146384600f0e6fc50
:101db0002a463946384600f093fd009844f208114f
:101dc0002a460144384600f048fe09b0bde8f08fcd
:101dd00010b5334c002084f85102012284f85802d7
:101de00084f8c20484f8ad0484f8b40484f8d504fb
:101df00084f8d30484f8d40484f8d704022084f847
:101e0000ce2400f057fdc4f8f404052000f052fd84
:101e1000c4f8e404042000f04dfdc4f8ec040720ed
:101e200000f048fdc4f8f004092000f043fdc4f8b8
:101e3000f804032000f03efdc4f8e804002000f0a0
:101e400041fdc4f8e004082000f034fdc4f8fc04af
:101e500001f014f801f0d9fcdff8880301f013fd5c
:101e6000dff8840301f015fddff8800301f014fdb5
:101e7000dff87c0301f013fddff8780301f012fdb9
:101e8000dff8740301f010fddff8700301f00ffdbf
:101e9000dff86c0302f087f8bde81040fff762b985
:101ea000e4db00202de9f04f83b00646f57a0124eb
:101eb0000122dff85083022d0edb98f85112082220
:101ec000002309b91d4604e098f8ad040123002859
:101ed000f8d0022da8bf0024b77ad6f80090f907f1
:101ee0004fea970a0af0010a03d5dff81c33186895
:101ef0008144012a70d1ba0798f8d40409d510b9e1
:101f0000284601f035fc002003b088f8d604bde86f
:101f1000f08f08b10b225fe02a464ff4177010fbd8
:101f200002f208eb020090f851b2bbf1090f08d0a1
:101f300098f8d70438b1494606f10800fff7c6f80b
:101f400008b1052248e0bbf1000f09d001f03afcce
:101f5000a84203d02846fef7a3f908b904223be0c3
:101f6000baf1000f23d1717a0329009117d8dfe865
:101f700001f00616060200f036fb02280fdaf179ae
:101f80000d290ad8dfe801f00d0d0d090d0d0d0921
:101f9000090909090707009818b906221ce0092257
:101fa0001ae03046fef775fd08b9022214e0294612
:101fb0004ff4177010fb01f12b4608eb010b9bf857
:101fc000061001910097317a727a306801f00101b0
:101fd00001f026f900bb07220020002c88f8d60467
:101fe0003ad04ff4177111fb05f1414491f85102b9
:101ff00090bb05eb4503002108eb830080f8c1246a
:1020000080f8c314c0f8bc94d8f8dc2403b000f501
:102010009760bde8f04f10478af00100ff0888f88c
:10202000d60407f001078bf856a28bf85772307a66
:10203000cbf800908bf85302b079ff2808bf292015
:1020400005d0292803db28218bf8521201e08bf8f8
:10205000520201208bf8510203b0bde8f08f30b47a
:102060001446684d95f8d62452b14ff417730a46ba
:1020700013fb04f401462b19d81d30bc00f07ebbc5
:1020800030bc70475f49c1f8dc0470475d4991f886
:10209000510208b10120704791f8ad040028f9d130
:1020a0007047032800db704700b581b000f0cefe1a
:1020b0000020544981f8d50401b000bd72b6bff3c9
:1020c0005f8f504991f8d40410b1401e81f8d404b8
:1020d000bff35f8f62b6704700b581b072b6bff3d1
:1020e0005f8f484890f8d414491c80f8d414bff38b
:1020f0005f8f62b6002001f03bfb01b001205df86c
:1021000004eb01f035bb0000480010e0f0b53d4c99
:1021100081b0c4f800050120c4f80415002784f834
:10212000d7044ff47a7600f07ef805464ff4177224
:102130007a43a11891f85102c8b301f25320a25872
:102140000078c30733d40309d4f800c516fb03f3a2
:10215000d4f804e5c0f34200d21aa2eb0c0ca2ebb7
:102160000e0220b35feac07e07d5bcf1000f01d498
:10217000002a16ddd21aaceb030c400800f01780e1
:10218000bcf1000f01d4002a0bddd21abceb030c0a
:1021900001d4002a05ddd21a401eaceb030cefd1ae
:1021a00005e0092081f85102f8b201f0e1fa7f1c44
:1021b000012fbbdd1db14ff480401449086001b010
:1021c000f0bd11490a680f49d1f80005121a44bf41
:1021d000002281f8d7247047ecf80020ec000120a1
:1021e000ecf0002095090000650a00001d0e0000bb
:1021f000990e00009d0e0000710700007d08000090
:10220000a10e0000e4db0020ec00004000e100e053
:1022100010b5044601f059ff4f4aa0fb0221c80c3b
:10222000401ea06010bd4d490868800b10f00100f1
:1022300007d04ff48043c1f88030bff34f8fbff316
:102240006f8f70472de9f047044621b9d66a156ba8
:10225000d2f8349003e0966bd56bd2f84090dff85b
:10226000fc80d8f80070bf0b17f0010707d04ff4bf
:102270008041c8f88010bff34f8fbff36f8f0e20df
:1022800000f0adf882460e2000f07ef8c4f8a86099
:10229000c4f8a49072b6bff35f8fa16b30480540bd
:1022a00001f470410d43a563bff35f8f62b6baf1cd
:1022b000000f04bf0e2000f07df81fb14ff48040e6
:1022c000c8f80000bde8f0872de9f041234c8046b6
:1022d00025680f46ad0b15f0010507d04ff480417e
:1022e000c4f88010bff34f8fbff36f8f0e2000f044
:1022f00076f806460e2000f047f83868c8f89c00cb
:102300007968c8f8b410b868c8f8b800f968c8f8af
:10231000bc103869c8f8d8007969c8f8dc10b86909
:10232000c8f89400f969c8f89810386ac8f8ac0081
:10233000796ac8f8b010b86ac8f8a000404601f041
:10234000e5fe16b90e2000f035f815b14ff48040c7
:102350002060bde8f081000006bd378600e100e0a6
:1023600000003fff00eb810110b5096d82688068b5
:10237000521c22f000425118401c4000b1fbf0f406
:1023800002f096f8001910bd1f4901230a6803faec
:1023900000f040ea020cc1f800c0bff35f8f1b4b96
:1023a000c3f800c0d3f808c01cea000ffad00a60d6
:1023b00070470000144901234a6803fa00f040ea1c
:1023c000020cc1f804c0bff35f8f114bc3f800c00b
:1023d000d3f804c01cea000ffad14a6070470d4bd5
:1023e0000949d3f800c00a68496842ea0c0c2cea93
:1023f000010c2cfa00fc0cf0010cbcf10100804136
:10240000c043c00f704700000c35012004060e4089
:1024100008060e400c060e402de9f04f054600243c
:10242000280683b003d5012201248df800206a0616
:1024300003d502230df80430641caa0604d5032337
:10244000e6b20df80630641cea0604d50423e6b2b1
:102450000df80630641c2a0704d50523e6b20df8f2
:102460000630641c6a0704d50623e6b20df8063070
:10247000641caa0704d50723e6b20df80630641cd5
:10248000ea0704d50823e6b20df80630641ce2b270
:10249000022a0cdc002a0ad0e4b208d0022c0ad1ad
:1024a0009df801209df80000121a012a03d0002097
:1024b00003b0bde8f08f0e00724f02bf7878a042e3
:1024c0004ff0000813d0612004eb44037c7014fb30
:1024d00000f05421788014fb01f15b01b9802046a3
:1024e000fb804ff0010800f021fe300002d1387867
:1024f000a84209d03d702246694607f108004ff016
:10250000010900f03bf901e04ff000099df800706f
:10251000012c08bf012f08d101f009fa90f8dea5bf
:102520004feada1a8af0010a01e04ff0000a30009f
:1025300003d101f09afd504501d0012500e00025ae
:1025400055ea09092fd00e20fff749ff83460e20d8
:10255000fff71aff6db1504601f074fd304602f0ee
:102560001ef94ff04020fff753fe4ff0402001f0de
:10257000cdfd012c39464ff0804007d102f06cf9b7
:1025800039464ff0402001f013fe06e002f026fa33
:1025900039464ff0402001f0dbfebbf1000f04bfd5
:1025a0000e20fff707ff76b9b8f1000f04d0fef751
:1025b000d9fd002003f0a2fcb9f1000f03d005f013
:1025c000c3f800f04bfc012003b0bde8f08f2d48ac
:1025d000408870472b48808870472a48c0887047d9
:1025e000284800787047274840787047dff89410f3
:1025f00026a04a7800eb420333f8020c7047000033
:10260000dff8801021a04a7800eb420333f8020c77
:10261000801c4005000e7047dff868101ca04a7847
:1026200000eb420333f8020c4005000e7047000037
:10263000dff8500015a241780ff2580c02eb41036d
:102640008c441cf8012c33f8020c80181e30012930
:10265000c8bf083080b27047dff828000ca140786e
:102660000ff2340c01eb4002604410f8011c32f808
:10267000023c58182a3080b270470248007a7047ee
:1026800001487047003501200835012036007e00e2
:102690000000280000040000000230b4002513e010
:1026a00050f8042bd30744bfa9f101039a18091f5e
:1026b000042942f8045bfad213468c0744bf158004
:1026c0009b1cc90748bf1d7050f8041b0029e7d1a7
:1026d00030bc704770b4034600205ff0000591b134
:1026e00015f0070204bfec101c5d4200e6b2c0b258
:1026f000704000064cbf82f0070010466d1c64005d
:10270000edb28d42ecdbc0b270bc7047f0b4034652
:1027100000200025c900002940f60f0640f3148070
:1027200015f0070202d1ec101c5d24014200a7b293
:1027300080b2784000054cbf86ea020010466d1c4e
:102740006400edb28d42ebdbc0f30b00f0bc7047d0
:1027500070b504460d4616461820fff715fe3246a2
:102760002946204605f02efa1820bde87040fff7f4
:1027700021be0000002205f075ba000062b38b078d
:1027800008d0521e11f8013b00f8013b00f02480f4
:102790008b07f6d1830740f0208000bf103a07d3a3
:1027a00030b4b1e83810103aa0e83810f9d230bc93
:1027b000530724bfb1e80810a0e8081044bf51f83f
:1027c000043b40f8043bd20724bf31f8022b20f829
:1027d000022b44bf0b7803707047121f17d35b00a6
:1027e00009d151f8043b20f8023b1b0c121f20f8c2
:1027f000023bf6d20be051f8043b00f8013b1b0a08
:1028000020f8023b1b0c121f00f8013bf3d238bf2b
:10281000121d521e24bf11f8013b00f8013bf8d8ed
:10282000704710b504461820fff7aefd204605f0ae
:1028300066fb1820fff7befd04f5006010bd10b563
:1028400004461820fff7a0fd204605f078fa18206e
:10285000fff7b0fd04f5007010bd10b50446182058
:10286000fff792fd204605f02cfc1820fff7a2fd93
:1028700004f5006010bd70b504460d4616461820dc
:10288000fff782fd32462946204605f01bfa044632
:102890001820fff78ffd601e8041c043c00f70bd40
:1028a00000b581b005f0fefc05f004fd0a4901b059
:1028b000086000bd1e2803da084951f8200070475f
:1028c00000207047022804da03490a6852f8200001
:1028d0007047002070470000283501204c09010096
:1028e00070b504460d4616461820fff74dfd3246da
:1028f0002946204600f006f804461820fff75afd46
:10290000204670bd2de9f043034614461d6825f3ab
:102910000e0543f8045b641ef8d141f20009cef2c3
:10292000001941f20008cef2011841f20003cef284
:10293000021340f24005cef210052c6840f200066a
:10294000c8f2000644ea06042c6088f8071044f632
:10295000ba5589f80851001f83f88801091f83f8c8
:10296000481140f2010040f2010188f8080288f89d
:10297000480289f82a0489f82a0789f80d1983f88a
:10298000020489f84d1b83f82a0389f88d1d89f804
:102990002a0589f8cd1f83f82a0089f84d1389f894
:1029a0002a0289f88d1540f20606b2fbf6f706fbff
:1029b00007f7a2eb070689f82a0589f82d1983f88d
:1029c0002a0689f86d1b83f82a0389f8ad1d89f85a
:1029d0002a0589f8ed1f83f82a0089f86d1389f814
:1029e0002a0289f8ad15a7f10607002fe3d1052ebd
:1029f0000ed189f82d1989f82d1b89f82d1d88f81d
:102a0000071089f82d1f88f8071089f82d1320e08a
:102a1000042e0ad189f82d1989f82d1b89f82d1d4e
:102a200088f8071089f82d1f13e0032e06d189f8c6
:102a30002d1989f82d1b89f82d1d0ae0022e04d1cd
:102a400089f82d1989f82d1b03e0012e01d189f891
:102a50002d19d3f82001bde8f08330f8043b521e55
:102a600021f8023bf9d17047d2b2203a22bf21fab5
:102a700002f0002170472032d141d04048409140bf
:102a8000d140484070470000d2b2203a22bf00fa3d
:102a900002f1002070475242d041d2f12002914011
:102aa0004140d040904041407047000070b50a4618
:102ab000dff8e853022a6e8803462c7838bf0122db
:102ac00050080021e6fb0301002305f0f9fbaa688a
:102ad000002c07bfb2f8d235b2f8d425b2f8da35f7
:102ae000b2f8dc25002902d8b0f5803f01d34ff6bb
:102af000ff7081b2994204d3134680b2834288bfeb
:102b00000346022bb8bf01236b8070bdf0b50f46a2
:102b1000dff88843217881b0a26811b9b2f8d035c6
:102b200005e002290cbfb2f8d835b2f8d635628874
:102b30000546002166785008e5fb0301002305f0f7
:102b4000bffb20611eb100f0f4fe874202d30020db
:102b500001b0f0bd2078032618b1022831d020d36f
:102b600051e0a16801eb870729463868fff79eff0f
:102b70006088d4ed030a00ee100ab8ee400a20ee99
:102b8000200a05f0b5fcbdeec00a10ee100aa080c8
:102b90002069396e88420cd33a6c904233d20126b8
:102ba00031e0a068216900eb8700d0f8a0209142b5
:102bb00001d2022627e0d0f88000884223d20026e6
:102bc00021e0a16801eb87072946386afff76eff0d
:102bd0006088d4ed030a00ee100ab8ee400a20ee39
:102be000200a05f085fcbdeec00a10ee100aa08098
:102bf0002069d7f8e010884205d3d7f8c020824278
:102c0000b641f643f60f304601b00021bde8f04072
:102c10006ee0000030b581b010b1012805d009e0a8
:102c20009e48816801f5a27408e09c4a906800f50e
:102c3000327403e099498a6802f24c4400f088fe3d
:102c40000022012832db10f0030147f6ff7309d0a0
:102c500034f81250b5f5004fa8bf24f81230521cba
:102c6000491ef5d1800821d034f81210b1f5004f7b
:102c7000a8bf24f81230521c34f81210b1f5004fde
:102c8000a8bf24f81230521c34f81210b1f5004fce
:102c9000a8bf24f81230521c34f81210b1f5004fbe
:102ca000a8bf24f81230521c401eddd101b030bd47
:102cb00030b581b0044611b1012905d009e077484b
:102cc000816801f5a27508e0744a906800f53275d4
:102cd00003e072498a6802f24c4500f039fe420076
:102ce0002946204601b0bde83040fff747bd00004f
:102cf000f0b581b00546694c2ded028ba068b0f8a7
:102d0000d225022ab8bf0122a0f8d225b0f8da25d0
:102d1000b0f8d235022ab8bf0122a0f8da25b0f8ff
:102d2000d025934228bf1a46a0f8d025b0f8d82560
:102d3000b0f8da35934228bf1a46a0f8d825b0f883
:102d4000d625b0f8d035022ab8bf0122a0f8d62582
:102d5000b0f8d425934228bf1a46a0f8d425b0f87d
:102d6000dc25b0f8d835934228bf1a46022da0f8ca
:102d7000dc2566dc6378012b01d0002961d000f5e9
:102d80008072257029464ff04020fff75bfa2b0038
:102d9000a06804d1b0f8d01500f5a27509e0022da5
:102da00007bfb0f8d81500f24c45b0f8d61500f5bd
:102db00032756180002700f0cbfd0646002200231b
:102dc000012e47f6ff7c0fdb35f81700b0f5004ffa
:102dd000a4bf604625f817c04043002112184b419c
:102de0007f1cffb2b742efdbb708002b01d8022ae5
:102df00006d31046194605f097fb08ee100a01e0cd
:102e0000b7ee008ab007394605f08efb00ee100ad7
:102e100080ee080a05f0acfb608884ed030a00ee42
:102e2000900af8ee600a20ee800a05f061fbbdee24
:102e3000c00a10ee100aa0800120bdec028b01b088
:102e4000f0bdbdec028b002001b0f0bd134a0121a2
:102e5000507010784ce71148407870470f480121b6
:102e6000007845e70d48808870470c4840887047d7
:102e70000a480078704709480069704710b500f0ab
:102e800055fd064c00f053fda0600120607000f07d
:102e900061fd0121bde810402ae7000098340120bf
:102ea0002de9f04182b005462c7eb5f816806e7e85
:102eb000296928686f6824b107eb8402b3005b427c
:102ec000d718dff844e0714504d14246394605f091
:102ed000e4fb0ae00091aa8aadf806806b46adf8e3
:102ee0000420ea68394605f053fb56ea040008d08e
:102ef00007eb8800a96844ea06434246001f05f034
:102f00007bfb02b0bde8f0810000ffff0b4a05f03b
:102f1000d3bb0a4b05f092bc12fb03f308a2dbb251
:102f200005f036bc054900220860202004a308747f
:102f30004a744b607047014908607047ac34012007
:102f400002c9f20e0cb62e262ab4e7d4feb851fa06
:102f500070b5244c054621780f2905d1607800b161
:102f60000e202070002070bdfff787fb00f00100ed
:102f70001d49c0eb001201eb8206fff734fb01286c
:102f800003d1217856f8216003e0207806eb800217
:102f9000966f60782178002814bf491e491c01f003
:102fa0000f0118202170fff7eff9aa882868314631
:102fb00005f00efd1820fff7fdf9002070bd29b9be
:102fc00001210e20074a107051707047002120b96e
:102fd0000e20044a1070517070470020014a107092
:102fe000517070470a350120b407010070b50446de
:102ff0000d4616461820fff7c7f9324629462046e7
:1030000005f024fd1820bde87040fff7d3b900207b
:1030100001490870704700002c350120032b00d9ae
:103020007047f0b581b0dfe803f0020f0f1600bf64
:103030002aa4284d94e8c81085e8c81001b00023e0
:10304000bde8f04005f064bd234c237805f060fd39
:10305000207001b0f0bd204c637805f097fd6070e2
:1030600001b0f0bd00201c494870704748f20212c0
:10307000194b02fb00f1f0b413f1040417a50a4444
:10308000910dc1ebc111401a0206d20e00f00700eb
:103090001021d6b2d7b2ae5d86400f2f08d10027df
:1030a000c2b2072a19bf0022401c0122002001e001
:1030b000521c1746ffb2c0f1080cef5d27fa0cf75f
:1030c0003e43491e04f8016be3d100201870f0bca8
:1030d00070470000c4340120c03401200ef2c90240
:1030e000262eb60cd4e7b42afa51b8fe10b5044621
:1030f0001820fff749f9637aa27a6168206805f021
:103100006dfd1820bde81040fff754b910b5044616
:103110001820fff739f9637a227a6168206805f090
:103120002dfe1820bde81040fff744b954230e4a85
:1031300013fb00f330b400eb400490705b1e9380ef
:1031400061014b005b1e4d1e01eb4101138100eb41
:10315000c003d580491e518100eb40015b005370d4
:103160008900117030bc7047f43401202de9f04320
:1031700081b005460f4616469946089c0e20fff77b
:103180002ef980460e20fff7fff84ff48050b04034
:10319000002c19bfa96b21ea0000aa6b1043a86399
:1031a00031462846fff7def8b9f1000f03d0874219
:1031b00038bf012424d33f1a72b6bff35f8fd5f80e
:1031c0009000b9f1000f18bfc719c11b642926bfb1
:1031d000381a052801240ed3dff8d816884228bff4
:1031e000002408d205eb86020123b34002241764b1
:1031f000a96b1943a963bff35f8f62b6012c05d198
:10320000a86b112101fa06f60643ae63b8f1000f70
:1032100004bf0e20fff7cef8204601b0bde8f083d2
:1032200070b582b01546069c00911e460146324696
:103230004ff0402004f00103fff798ff70b1dff872
:103240007826a308e4080799324403f0010304f048
:1032500001040120157293721473917302b070bd52
:103260002de9f041fef7dfff0546dff84c663079c7
:1032700038b3b0789fedba0a00274ff40c68b0b1ac
:1032800010ee104afbb2f26a18fb03f34ff4007120
:103290007f1c1a4402f58f5005f038feb178fab25f
:1032a000b0fbf1f004198a42ecd300ee104ab8eefc
:1032b000400a05f05df9b16abceec00a10ee100ad2
:1032c000884725b14ff48040dff8f0251060bde855
:1032d000f081f0b581b04ff080442069dff8e0550f
:1032e00040f001002061a868400608d50021402078
:1032f000c4f8b810226842f0040222606860a9682d
:103300004806fcd4dff8b0654ff40c77f16a40232f
:1033100001f58c52dff8ac15c5f8c821b078002251
:1033200017fb00f020f07f40c5f8d4010620c5f857
:10333000d0212b6005f0f8fd01f051fc316bdff876
:1033400088254118b078126817fb00f08000401cf7
:10335000521cab685b06fcd5d4f8ec30e56a5043f0
:1033600045f00205e562e66ac91a514326f00206f5
:10337000e662c4f8b810c4f8bc00206840f002004f
:10338000206001b0f0bd70b4dff84005132101608a
:1033900000220260dff838058023036041680906d7
:1033a000fcd4d0f8fc01dff82c25dff80c054178bf
:1033b00001eb410402eb84039d6a45f080759d6238
:1033c00006788419a07a70b1207a18b902f1240025
:1033d000906408e0022807bf02f19c05c2f89050f3
:1033e00002f16c061666207b48b101290cbf02f180
:1033f000240003f130005862dff8dc04986270bcee
:10340000704770b50546dff8b04401200e462570c0
:10341000207100f033fc226931462846904760193c
:10342000dff89c14027adff8ac3410000bd103f102
:103430003c05ad08ad0045f00105c1f80c52032074
:10344000c1f810021de0022a0ed103f19005ad086b
:10345000ad0045f00105c1f80c520320c1f810027f
:103460000225c1f818520ce0032a0ad103f15400d6
:103470008008800040f00100c1f80c020325c1f86b
:10348000105226783444a07a70b1100003d103f1b1
:103490003c029a6408e0022a07bf03f19000c3f8d7
:1034a000900003f154021a668020086088680206c2
:1034b000fcd5dff82804016841f01001016070bdff
:1034c00030b581b0044600f006fcdff8ec03037869
:1034d000c28803441d7a032d13d8dfe805f00212d9
:1034e000080d0221022201714ff4006109e004225b
:1034f0004ff40051027104e00621042201714ff4df
:1035000066510c190463997b01b051188ab2521e9e
:10351000022ac180ccbf0221491e81704069bde8ea
:103520003040004770b5dff89043054622780e46dc
:10353000954207d1e07808b900f02efc00f0e7fbd7
:10354000fff721ffe26931462846904720788542ff
:1035500005d1304600f0f4fb00212171e17070bd0f
:103560000000000070b5dff8506304460d46fff719
:103570000aff326a2946204690473078844204bfc9
:103580000021317170bd0000f0b581b0dff8286313
:10359000fef749fe0546dff8480307683179bf08a2
:1035a000bf00891e0a295cd8dfe801f00610172148
:1035b000273033383d424b0032783244907a00282d
:1035c0004fd1b1698847032030714ae0fff781fe8f
:1035d000c4480c217063317143e032783244907af0
:1035e00000283ed1b16988470520307139e0fff7e6
:1035f00070fe706a8047bc491fe033783344987a84
:1036000078bbb1698847072030712ae008223271ff
:1036100027e0706a80470921317122e0706a804793
:103620000a2131711de0706a80470b21317118e069
:10363000fff74ffe706a8047aa490c22716332710e
:103640000fe0706bb84213d2381aa84aa0fb0221cf
:103650004c05240e012c03db706a8047641efbd1ed
:1036600077631db14ff480409449086001b0f0bd0c
:10367000874208d2c01b9d4ba0fb0332d408c4f183
:103680000204e4b2e6e7f0780028e9d070789649c1
:1036900000eb400292008b589f42e1d1f288306be0
:1036a0004ff40c61012401fb020000f026fbd3e77c
:1036b0002de9f041804c874ee06a874d06f13008d5
:1036c000b562c6f8248006f12407f06200f50c61ab
:1036d000376301207563b163fff7f4f806f1480220
:1036e0008349f26300f58062316406f1600370641f
:1036f00006f16c0cb764f164b165716606f19c016a
:10370000c6f890107b49326573657b4bf065c6f84f
:1037100060c0b26606f18402c6f89410c6f898003c
:10372000c6f89c80c6f8a010e06a3260734c022292
:10373000f360c6f8a40000237160b0603461704c7f
:10374000726100f50c62c6f8881006f178017067a6
:103750006c48b361f4613362c6f88c20c6f884709b
:10376000f1663567b667f067c6f88020bde8f0817e
:10377000514970b50a780446904208bf00f00cfb2e
:10378000fef751fd05460e20fef729fe06460e20e7
:10379000fef7fafd72b6bff35f8f5b484ff480729d
:1037a000016802fa04f40c430460bff35f8f62b651
:1037b00016b90e20fef7fefd1db14ff480403f49c3
:1037c000086070bd3c49087908b9ff207047087847
:1037d0007047394b3f4a30b41d7800eb400402eb90
:1037e00084021d44297b39b102f12404414d546205
:1037f0009562587030bc7047916a21f08071916277
:103800000122da70587030bc704710b52a4c002184
:1038100021710020e170fff755f8e062fff748ffe3
:103820003a480121c0f80412334ac0f81822334b39
:10383000c0f82c320021c0f83012354ac0f83422ca
:10384000802303603349072005f06efb00f06ff81a
:1038500000f580714ff04020fef736fd2e4805f050
:10386000d5fc2e4805f0defc2d4805f0d2fc2d4895
:1038700005f0d2fc2c484ff04021c1f8cc00bde847
:10388000104000f093bb0c49086170470a49486139
:1038900070470949886170470749c8617047064900
:1038a0000862704705f0bbbc034948627047024993
:1038b000886270470146c3239433012000e100e091
:1038c0001c0001406130000008400040c040004042
:1038d00020000140586f01203002000304400040e6
:1038e00028020140886f01207c6f0120abaaaaaaa0
:1038f0000001000300020003004000e21170020713
:1039000000f8ffff3002001b384000400c0001406f
:1039100000f8ff008933000003320000c1320000cc
:1039200025330000653300003333d001704707486a
:103930007047064890f8df057047010004d0092859
:10394000bcbf024981f8df057047000004d60020a3
:10395000fef73dbe0020704710ee100ab5ee400a9b
:103960004ff0807111eb400f85f0b084f1ee10fa4a
:103970002149f1ec070a45f3b384c20d01f10c01b2
:1039800091ec054a2dd07e3aa0ebc25000ee100a11
:10399000b4ee600af1ee10fa44bf521e20ee210a86
:1039a00000ee902af8eee00a70ee416a30ee017afd
:1039b00086ee877a67ee077a02eea73a43ee273a59
:1039c000b0ee660a03eee70a20ee077a20ee850adb
:1039d00005eec70a04eea60a04ee260a06ee200a41
:1039e000704720ee020a10ee100ac20d7e3aa0ebdc
:1039f000c250173acae70000ac0a010010ee100ae4
:103a0000734600f003f800ee100a1847c0f3c752df
:103a10007e3a09dd182a0eda6ff07f41d14000426c
:103a200058bf401888437047c04218bf4ff07e50bf
:103a300028bf4ff0004070472de9f0410c4684b09c
:103a40004a4900224ff48475064600916b46adf852
:103a500004200ff24418adf80650b188adf80810f4
:103a6000b0790228204607bf414f4249424f43499f
:103a70003a4605f03ffc012310224146204605f05e
:103a8000abfc4ff0ff33102208f11e0104f57870f3
:103a900005f0a2fc10206b46adf80600b1793a465d
:103aa00004f5846002290cbf354e364e314605f0d0
:103ab00021fc01231022414604f5846005f08cfcb2
:103ac000202304f5787204f5846104f5787005f01c
:103ad0009dfc1021adf80650adf804106b463a4637
:103ae000314604f5846005f005fc4ff0ff331022e9
:103af00008f11e0104f5f86005f06efc04b0bde8a5
:103b0000f08130b5044683b00720fef7d3fe0546aa
:103b10001820fef739fcfef766fd012817d113497e
:103b200000224ff400730091adf80420adf8063088
:103b3000a1886b46adf80810a0790228284607bf77
:103b4000114a1249124a134905f0d4fb03e02946f1
:103b50002046fff771ff1820fef72cfc20684ff479
:103b60000062294605f078fc03b030bdef8d2100de
:103b70005b65d5eab817feffa59a2a155834e7ff0a
:103b8000a8cb180048e80100430816f5b0710b00f7
:103b9000bdf7e90a508ef4ff00007a02d109bb1587
:103ba000c32549398c4faf67c480d199ddb1fcc7bb
:103bb00051db1debc3f6d0fd30b5dff84c5481b0be
:103bc0002878dff8484480b1a8780121e97038b935
:103bd000e168a869014207bfa9682160e8698047d8
:103be0000022a969ea70216301e0a8686060dff83b
:103bf00020040222016a026001b00920bde83040c1
:103c0000fef7d8bbdff8000441680a78c2f38200ef
:103c100030b1dff80004006800f0010006f0ddba02
:103c20007047f0b504460d46dff8dc0381b041680b
:103c30000b78de0720d502700920fef7a5fb00f007
:103c400044fa4008dff8d023a0fb0221dff8cc3390
:103c5000dff8cc730026c80c1968e0fb0776641afd
:103c60004443dff8ac03360906fb0544012cb8bf1a
:103c70000124c4610521016001b0f0bd10b5dff879
:103c8000884300216078a17040b900f093f8fef7f6
:103c9000a7fc0021fef7c0fb00f0b0f860680178d7
:103ca000c1f3400121b9e16820690143616110bda0
:103cb0000178c1f3411119b9fff7daf828b907e023
:103cc0000078c0f34110012802d12169616110bd63
:103cd000e168616110bd70b50446cb4da87858b954
:103ce000ca4e6969316000f0f7fb014601222046a7
:103cf000fff797ffa869706370bd10b5044600f028
:103d00001dfc014620460022bde8104089e710b5a1
:103d1000bd4cc449a2680a60a07880b162690a609b
:103d2000a069c862ba4802210160026a0920fef750
:103d300041fb4ff40071bc4b19600022227010bd92
:103d4000f0b50646b04c606881b00178ca0721d54d
:103d5000b24b1868861bc6f13206ff2ec8bfff267d
:103d600001dc012e13dba2788ab900f08cf9a0fbec
:103d70000623f717ad4e00fb073300279019ac4a16
:103d800043eb0701002304f09bfa06f04bfa646949
:103d9000a44d2c6001b0f0bd00229b4901200a70a7
:103da0008870a04a8b681360c87808b949691160a7
:103db00070470000944840680178890801f00701c5
:103dc000052915d8dfe801f0030703070707027884
:103dd00002f09c020fe0017841f001010a460170f7
:103de000c2f34111032907db02f09f010170704704
:103df000027802f08002027070470000f0b5824d38
:103e000081b068688b4c0178890801f00701491e70
:103e1000042904d8dfe801f00e2440556a0000238d
:103e20004ff440624ff00061204606f038fa00235c
:103e3000362227e0002340f234424ff04051204622
:103e400006f02dfa002340f602024ff020512046e2
:103e500006f025fa4ff4806010212022022359e059
:103e6000002340f234424ff04051204606f017fa4a
:103e700000234ff400624ff00061204606f00ffa75
:103e8000002302224ff02051204606f008fa0020bd
:103e90000021002200233de0002340f634424ff091
:103ea0004051204606f0fbf9002302224ff020513a
:103eb000204606f0f4f94ff40060042104220223a6
:103ec00028e000234ff440624ff04051204606f0b6
:103ed000e6f9002336224ff02051204606f0dff9a4
:103ee0004ff400614ff480600a4612e0002340f670
:103ef00006424ff04051204606f0d1f9002330220f
:103f00004ff02051204606f0caf94ff4806002219c
:103f100004220023ab61484e2a61e960a86037683b
:103f2000bf0917f0010706d04021c6f88010bff383
:103f30004f8fbff36f8f68680178c1f3820078b943
:103f400001223e4862640068c10420464cbf4ff025
:103f500040514ff06051002306f0a1f901200ce020
:103f6000032301224ff02051204606f098f9e06c1f
:103f700001212164e06b00f0010006f02ef90fb181
:103f800040203060012101b06970f0bd00b581b002
:103f9000fff710fffef724fb0021fef73dfa01b00a
:103fa0005df804eb2ae71849c861704710b5164c54
:103fb000002082b06070e070fff7b9fc00f2de50c4
:103fc00060600920fef7e0f91148022101604ff01e
:103fd000ff328262036a002410214460416209209a
:103fe000fef7e8f916484023009001220621114807
:103ff00006f0c5f9fff7defefef7f2fa02b0002187
:10400000bde81040fef708ba1434012030040e4019
:1040100000c000403c040e4006bd3786ec00004066
:10402000ed25b49734040e4080e200e0df835a00af
:10403000e0835a0000040e4000e100e0340000403c
:10404000053a0000012802d0022805d009e040f21c
:10405000011026490860704740f20222234b1a6083
:10406000704700202149086070472048016811f01e
:10407000030f04d00068c00703d40220704700205b
:104080007047012070471948016811f0030f09d0eb
:104090000168c90704d40068800703d51448704735
:1040a00014487047144870471048016811f0030f16
:1040b00009d00168c90704d40068800703d50f48f8
:1040c00070470f4870470f4870470848016811f063
:1040d000030f09d00168c90704d40068800703d51d
:1040e00009487047024870470248704710060e4062
:1040f00080f9370300f36f0600e6df0c808d5b006c
:10410000001bb70000366e01c0fc9b01f0b581b00a
:104110000446fff7aaffd4f8a010012801f00f0110
:1041200014d10329dff8c46308bfdff8c47319d0c2
:10413000062908bfdff8bc731ed0082919bfdff8b5
:10414000b8730225dff8b473002516e00129dff803
:10415000b06303d1dff8ac7306250ee0032903d169
:10416000dff89073052508e0072903d1dff88c7389
:10417000012502e0dff890730325fff784ff00ebd1
:1041800056012d0200eb570045f00405b0fbf7f097
:10419000b1fbf6f1431e49081b064a1e1b0c02f038
:1041a0007f0203f4f8531a43a261656101b0f0bdc8
:1041b0002de9f0410446d5480d466060fff755fff4
:1041c00048b90ff27c3040f29f1600eb85010825bc
:1041d00051f8040c03e0ce480a254ff4d976dff8f5
:1041e0003483e060fff74fff4fea900c00f5f431a5
:1041f000acfb088e4831c74f4ff6ff72a1fb077327
:10420000c5494feade4e02eb534316fb0e269bb226
:104210001f46c1f25b0743f4102cb6b243ea0646d0
:104220000b432661e761bb4fc4f820c0636200f511
:1042300074339033a3fb077602eb9641b54e89b2f7
:1042400041f4202cc4f828c041f08a51e162b349fe
:10425000081846f67811a0fb066346f6771002ebc5
:10426000d342012392b242ea054222630022216531
:1042700020662267c4f88030616560666267c4f8b2
:104280008430a165a066a267c4f88830e16500218a
:10429000e066a348c4f87c20c4f88c3030f81120c4
:1042a00004f5007343f82120491c30f8115004f53f
:1042b000007242f82150491c30f8113004f50075a5
:1042c00045f82130491c30f8112004f5007343f8fb
:1042d0002120491c5c29e1db4ff6be7100f1b802d8
:1042e000c4f800145ff0010104f5806532f8113064
:1042f00045f82130491c32f8113045f82130491c6d
:1043000032f8113045f82130491c1f29eedb4ff6f9
:10431000e57100f1f802c4f80016012104f5c0654a
:1043200032f8113045f82130491c32f8113045f887
:104330002130491c32f8113045f82130491c32f83f
:10434000113045f82130491c4129e9dbbde8f081f5
:104350002de9f04104466d480a00606000f0a68037
:104360007fa36c4d03eb810151f8040ce060fff773
:104370008afe8608dff89cc1a6fb0cc700f5f43165
:1043800048314ff6ff73a1fb05524ff4e87eff0c56
:1043900003eb52421efb0737dff878c192b2154695
:1043a000c1f25c0542f40026bfb25e4942ea07480a
:1043b0000a43c4f81080e56100f574359035266233
:1043c000a5fb0cc7626203eb9741574a514f89b274
:1043d00041f41026a6621143e1625449081846f6da
:1043e0007811a0fb077546f6771003eb15530022f2
:1043f0009bb243f4002323630123216520662267d7
:10440000c4f88030616560666267c4f88430a16575
:10441000a066a267c4f88830e1650021e0664448e0
:10442000c4f87c20c4f88c3030f8112004f50073f7
:1044300043f82120491c30f8115004f5007242f86d
:104440002150491c30f8113004f5007545f8213031
:10445000491c5c29e8dd002100f1bc0204f58065ff
:1044600032f8113045f82130491c32f8113045f846
:104470002130491c32f8113045f82130491c2729d8
:10448000eedb0d2100f58672c4f800165ff0010125
:1044900004f5c06532f8113045f82130491c32f876
:1044a000113045f82130491c4729f3dbbde8f08184
:1044b00000b581b0fef797f8012809d1fff7d5fdc7
:1044c000002801b014bf40f2951040f28d1000bddd
:1044d0004ff4df7001b000bd00b581b0fff7c5fd3e
:1044e000002801b00cbf1348134800bdc0c62d0002
:1044f0004054890080a81201c0fc9b0180f9370359
:10450000808d5b00001bb7000051250201000102f5
:104510009962040006bd378600001e1120a1070025
:1045200038050100000026110000461340420f002c
:104530009c03010086feffff78fdffff51207047be
:104540004c3102007106040096db0500bbb0070089
:10455000e0850900055b0b002a300d004f050f00b8
:10456000df1b030004f1040029c606004e9b08006f
:1045700073700a0098450c00bd1a0e0001f0abbc28
:1045800010b50446e07a08b106f095fd617aa448ba
:10459000012908d1b0f8563002684168521c026007
:1045a000cb18436029e08168491c8160627a921ec1
:1045b0000a2a22d8dfe802f0060a0e0a12161212a0
:1045c000121a1e004169491c416116e00269521c21
:1045d000026112e0c168491cc1600ee08269521c90
:1045e00082610ae0c169491cc16106e0426a521c4d
:1045f000426202e0016a491c0162416c19b1204625
:10460000bde81040084710bd854a10b4936ad46acb
:104610005b1c81b093626418d462926c12b101b0d9
:1046200010bc104701b010bc70477d49c96c00290f
:1046300018bf084770470000801e032817d8dfe81e
:1046400000f002070c117648816b491c81637047aa
:104650007348016c491c016470477148416b491ce7
:10466000416370476e48c16b491cc16370476c4819
:10467000016b491c016370476949096d002918bf26
:104680000847704730b5664c012181b084f854105a
:104690000c200025fdf778fe0d20fdf775fe0e209d
:1046a000fdf772fe5f480121c0f8c4114ff062426d
:1046b000c0f8d4210023c0f8e8315b49c0f8ec1100
:1046c00040220260fef7ecf801213020fdf7a4fe45
:1046d000fdf77efb5548fdf7d5fc5548fff7d6f8aa
:1046e00006f0fbfc002006f049fd524806f058fd9c
:1046f000514806f058fd514801f04bfe504806f075
:1047000055fd504806f055fd06f0d5fc06f083fe39
:104710001f204d49086004f14402002000210023bd
:1047200082e82b002046602405f0d3fc07f01af83d
:1047300046484ff48071c0f88011202280f8082389
:10474000402301604ff48041c0f88011802280f83e
:104750000e3301604ff40071c0f8801180f8093306
:1047600001604ff40051c0f8803180f806330360d7
:1047700080f80d4301604ff48051c0f8801180f83b
:104780000c2301604ff40041c0f8801180f80f2322
:10479000016001b00e20bde83040fdf70bbe0146c0
:1047a0001f4890f854204ff0804007f005b90146ab
:1047b0001b4880f854104ff0804007f087b9184824
:1047c00090f854007047000000b581b007f04ef833
:1047d00005f088fcfdf7f5fc114991f8540000281c
:1047e00004d01b4a1068c00400d430bf01b000bd23
:1047f00030b4184990e83c0081e83c0030bc704778
:1048000010b50446fdf74efbe27aa18804f10c00d6
:10481000fdf725fca0880249a1f8560010bd000054
:10482000003301200c000140011004068143000008
:104830007d430000094400002b440000794400003f
:10484000394400000d1f0000b400004000e100e00a
:1048500034000040443301202de9f04104460e4667
:10486000e06a40f00100e062616b41f40041616385
:10487000206840f480302060fff7f7fb050010d17e
:104880000ff2304e0ff24c4cb4440eeb8606002073
:1048900002210422062307271cf801cc56f8046cd9
:1048a00008e0012001210022072306274ff0030c16
:1048b000dff85c63d4f834e04fea4c6c0cf0f05c49
:1048c00000282ef0f05ec4f834e0d4f834804ceace
:1048d000080cc4f834c066604ff4802614bf4ff44f
:1048e000803241f48026a260ca49e66020693f0216
:1048f000c94a47f00a07c94e40f0010047ea03479a
:104900002061802361610121a2613246e761204676
:1049100007f0f6f8802306f580720221204607f0a2
:10492000eff8a5b9be48bf49c4f88800be4ac4f82c
:104930009410be48a26349f69e21e063bc482164fe
:10494000bc4aa066bc49e2662167606714e0bb48c8
:10495000bb49c4f88800bb4ac4f89410ba48a263a3
:104960004bf2ca11e063b94a2164b948a266b94959
:10497000e066b94a21676267d4f89000b749b84a3f
:1049800040f01000c4f89000b6486164b649a264d3
:10499000b64ae064b6482165b6496265b64aa06584
:1049a000b648e1654ff46151226660662163d4f830
:1049b000902022f0c002c4f89020d4f8900040f07b
:1049c000c000c4f89000e16a49084900e162606be8
:1049d00020f400406063bde8f081000030b581b094
:1049e0000446e06a0b0040f00100e062626b42f4b2
:1049f00000426263206840f48030206074d000bfc1
:104a0000b4a29f4d0a4412f8010c636b23f0f053db
:104a10006363626b0323400600f0f0501043606351
:104a2000aea000eb8101974851f8042c6260964ad1
:104a3000a3608023e0602169764841f00101216193
:104a4000012160612046a261e561744d05f50072a7
:104a500007f056f8802305f540720221204607f042
:104a60004ff86f486f49c4f888006f4ac4f8941033
:104a70006e48a26349f69e21e0636d4821646d4a49
:104a8000a0666d49e266764a216774496067d4f88a
:104a9000900040f01000c4f89000724861647249c0
:104aa000a264724ae0647248216572496265724a82
:104ab000a0657248e1654ff461512266606621632a
:104ac000d4f8902022f0c002c4f89020d4f89000ce
:104ad00040f0c000c4f89000e16a49084900e16272
:104ae000606b20f40040606301b030bd30b581b030
:104af0000446fdf778fd494d012818bf05f50075fe
:104b00005ff0000035f8101044f82010401c35f814
:104b1000102044f82020401c35f8101044f82010d4
:104b2000401c35f8102044f82020401c8028e9db88
:104b3000802001b030bd0000f0b581b00446e06acd
:104b40000d46524a524e534f022340f00100e0629c
:104b5000616b41f40041616320684f4920f480306b
:104b60002060a26052a2e16020694ff4803140f0e1
:104b700001002061204661610121a661e76106f024
:104b8000bfff8023454a0221204606f0b9ff606b33
:104b900020f0f0506063616b414841f04061616317
:104ba000d4f890200240c4f8902045b1d4f8901079
:104bb00041f0ce4141f41851c4f8901005e0d4f80a
:104bc000902038480243c4f89020e16a490849001f
:104bd000e162606b20f40040606301b0f0bd00b59d
:104be00081b0fdf700fd012809d1fff73efa00284a
:104bf00001b014bf40f223104ff4917000bd40f299
:104c00002d1001b000bd28487047284870470000ab
:104c10009962040000007f1000007f1b94fd0000db
:104c2000581b2008a8000e006d3f0700588d040097
:104c3000900178001600140010000c00ac0d200844
:104c4000540007005bab050030f3040090013c000a
:104c500001000e00010004005000100000010005da
:104c6000a000eb000c00190008000a005503050025
:104c7000d500f5000d00620009000b0003000600de
:104c80000a0806000300040000007f170401000169
:104c900000007f030a09070002000300b4060100b8
:104ca000ff0000c5003c165d711cc701f9ffff0f36
:104cb000ff7f00004c3102007106040096db050006
:104cc000bbb00700e0850900055b0b002a300d0032
:104cd0004f050f000402020101000000df1b03006a
:104ce00004f1040029c606004e9b080073700a00f8
:104cf00098450c00bd1a0e00f0b5dff8004d81b0ec
:104d000094f87800d4f8d850002819bf05f500763b
:104d1000802705f500664ff40077ae423a463046ec
:104d200008bf05eb87052946fdf7dafdb4f890309a
:104d30003a462946304607f0ccf894f87810d4f873
:104d4000d80011b1fdf77bfd01e0fdf76afd0646d5
:104d50001120fdf7affd0546fdf745fc012813d1f5
:104d600094f87800002814bf4ff400704ff40060ee
:104d70003044a0f1c001c0222846fdf7fffcc42248
:104d8000314605f1c0000ce04ff4c2773a4606f513
:104d9000cc612846fdf7f2fc3a4606f1200105f504
:104da000c270fdf7ebfc94f8780094f96d6018b1cf
:104db0000021b61e84f87810fdf709fc014672b296
:104dc0002846fdf758fd284601b0f0bd70b5dff864
:104dd0002c0cb0f87a10d0f8d450d0f8d8600c462b
:104de00001f500718ab2b2f5806fc4f58062a8bf88
:104df000a1f58061b2f5007fa0f87a1005eb84017f
:104e000004db4ff4006206f500600de0920006f549
:104e10000060fdf7b3fca4f50072a40064423019f1
:104e20009200294600f5c050fdf7a8fcbde870408f
:104e300062e72de97041154682884ff6ff76d0f87b
:104e40000080130006bf8a886ff01f040024c2f39d
:104e50004612b21814190a680021500810eb0840d5
:104e600041eb1841002303f02bfab04228bf304633
:104e7000288020b2bde87081f0b5dff8804b81b0aa
:104e800004f18a0204f1380104f10800fff7d1ffb0
:104e90000546a5f50072d4e90067b018dff8606b2d
:104ea000376807eb8007fff79afe391a94f86a0013
:104eb00005eb401501f5cc52c4f8cc2005f5806512
:104ec000adb26a0a05eb92539b0aa5eb8325a4f8c1
:104ed0007a50b4f87a0000f5067080b2b0f5806fb1
:104ee000a4bfa0f5806080b2021100ebd2635b1119
:104ef0001a46a0eb431083b22bb9d0b200280cbfe6
:104f00001f22521e202084f8692094f8692080b264
:104f100040f0a06002eb42039a00dff8243d03f565
:104f2000f0759f189d507860b06f020a02f007027a
:104f3000030103f010031a43d4f8a03084f874205e
:104f40000022c00a9847052000211c2284f86e0028
:104f500084f8721001b0a4f89020f0bd2de97043e0
:104f6000fdf741fb0128dff8944a3cd1d4f8c81082
:104f7000202304f12002dff8cc0c06f081fe00288b
:104f80003cd194f826000025102839dadff8706a41
:104f90000120716941f480517161d4f8ac209047cf
:104fa00075b3012004f18e0284f8710004f1500100
:104fb00004f12000fff73dff0546a5f58072d4e916
:104fc0000089366808eb02006d1c6d4206eb800616
:104fd000fff705fea4f89450361a06f58646c4f885
:104fe000d060bde87083d4f8c810202304f12002fb
:104ff000dff86c0d06f044fe0028c2d00125c5e79d
:10500000a08ca4f85400bde870832de97043fdf72f
:10501000eafa0128dff8e44920d1d4f8c4102023ab
:1050200004f13002dff81c0c06f02afe08bb94f8ed
:105030003600002510281edadff8c46901207169e6
:1050400041f0004141f480517161d4f8ac209047a7
:105050008dbba08ea4f86400bde87083d4f8c410a2
:10506000202304f13002dff8f80c06f009fe0028d6
:10507000ddd00125e0e794f871000128e9d1b4f80a
:1050800094002030a4f8940000b23f28e1db94f8ab
:10509000700048b9dff86809416921f48051416125
:1050a000d4f8ac2000209047102184f8715084f887
:1050b00026102562cde7022004f18e0284f87100eb
:1050c00004f1600104f13000fff7b3fe0546a5f5d9
:1050d0009e72d4e90089366808eb02006d1c6d42af
:1050e00006eb8006fff77bfda4f89850361a06f50c
:1050f0008646c4f8d060bde87083f0b581b0dff8b3
:10510000fc48fdf770fa01281cd1d4f8c010202308
:1051100004f11002dff82c0b06f0b2fde8b9a07d17
:10512000002510281bdadff8d808416941f000415a
:1051300041f480514161d4f8ac200120904702f045
:105140002dfb61e0d4f8c010202304f11002dff839
:10515000100c06f095fd0028e1d00125e3e794f856
:105160006e00022820d1b4f89a0040f203412030aa
:10517000a4f89a0080b2884211dbdff88418dff8c7
:10518000fc0b4a69024000204a61d4f8ac10884701
:10519000012084f8705084f86e0084f87150a08a61
:1051a00001b0a4f84400f0bd94f8711002292bd18d
:1051b000b4f898002030a4f8980000b2c72823db88
:1051c00094f8700058b9dff83818dff8b00b4a6966
:1051d000024000204a61d4f8ac1088470be0012857
:1051e00009d1dff81c08416921f480514161d4f8ec
:1051f000ac2000209047102184f8715084f82610cc
:10520000256284f83610256394f87000032805d1d0
:1052100094f86e10022918bf012000d10020002d43
:1052200050d018b12069a16888424ed304f18a0297
:1052300004f1400104f11000fff7fbfd0546a5f560
:105240000072d4e90067b018dff8b4c747ebe27129
:10525000c4e90001dcf8006006eb8006fff7bffc44
:1052600094f86a10361ac5f11f0005eb4115a4f831
:105270009c0006f58646c4f8d06005f50075adb211
:10528000680a05eb9052920aa5eb8225a4f87a50a1
:10529000fff79cfd0546fdf79af98200d4f8dc0083
:1052a0002946fdf77bfa94f86e20032084f87100fc
:1052b000002184f8681001b0022a08bf042084f895
:1052c0006e00f0bd00283ff46aaf01b0bde8f040c9
:1052d000d2e52de9f04381b0dff82047fff776fdf6
:1052e00006461820fdf7e6fa0546fdf770f9d4f8f2
:1052f000dc1007463b462a46304606f09bfd3a4600
:1053000029462846fdf7ecfa02f078fb01463a46ba
:10531000284606f0f5fc43f2f23188421adbb4f875
:105320007a00012500f5067080b2b0f5806fa4bf49
:10533000a0f5806080b2011100ebd16252111146dc
:10534000a0eb421082b2cab9c8b200280cbf1f211c
:10535000491e12e00025d4e9000110f5007241f168
:105360000003d4f8dc003146c4e900233a4606f0d5
:1053700087fd284601b0bde8f083202084f869103d
:1053800094f8691080b240f0a06001eb41029100f6
:10539000dff8ac2802f5f073561853507060dff850
:1053a0006066d4e900893768a8f5806007eb80075c
:1053b000fff715fc391a01f58642c4f8d020b06f0a
:1053c000030a03f00703020102f010021343c00aac
:1053d00084f8743094f86e300222042b08d1d4f88b
:1053e000cc608e1b1036212e3cbf0322a1f5cc5180
:1053f000052384f8722084f86e30d4f8a040a047ca
:10540000284601b0bde8f083f0b4dff8f0050022d3
:10541000d0f8d400dff8dc3adff8241802eb4204bd
:1054200001eb840400ebc216521c1f2a04f10c0588
:1054300063602560a660f1db00f57862c1f8783121
:10544000c1f87c215ff00004c1f874114ff40c72b4
:10545000dff8903d04eb440502fb04f701eb850502
:10546000641c05f5c6760744c5f88061c5f884312b
:10547000c5f8887104eb440501eb850502fb04f7d0
:1054800005f5c676641cc5f880610744c5f884310b
:10549000c5f8887104eb440501eb850502fb04f7b0
:1054a000641c0f2c05f5c6760744c5f88061c5f865
:1054b0008431c5f88871cddbc1f8383242f2d003af
:1054c00001f5c0721844c1f83422c1f83c02f0bca6
:1054d0007047dff82805f0b5b0f87a50d0f8d4401e
:1054e00081b0d0f8d86005f13007bfb2b7f5806f52
:1054f000a4bfa7f58067bfb2c7f58062b2f5f47f9d
:1055000004eb870104db4ff4f46206f500600de064
:10551000920006f50060fdf731f9a7f50672bf00ad
:105520007f42f0199200214600f5c050fdf726f9a0
:105530001835691205eb91529212a5eb8225adb296
:10554000c5f58062182a04eb850103db602206f5ad
:105550007a600de0920006f57a60fdf70ff9a5f587
:105560007a72ad006d4270199200214600f5fd502f
:10557000fdf704f901b0bde8f040fff7bdbb30b561
:10558000dff8784481b0b4f87c10d4f8d43094f8c3
:105590006a50202203ebc51001f1202106f0cbfb5d
:1055a0000f20fcf7f1fedff8ac1c486820f000701b
:1055b00048604a68012042f000724a6084f86f0037
:1055c000b4f87c00b0f5807f0cbf00201030a4f848
:1055d0007c000a68dff84c0d6ff31b4202430a603f
:1055e00001b030bd30b581b0dff81054fcf71bfec0
:1055f000044695f8730030b100f085fb02f0cef858
:10560000002085f8730024b14ff48041dff8400d8d
:10561000016001b030bd0000f0b581b0dff8dc43bf
:10562000fff7e0ff94f86e00002800f0e281fcf73d
:10563000daff94f86f100546491e052900f2d9815a
:10564000dfe811f006005b00f2005d017701a301c5
:1056500094f8700000283dd1d4f8bc10202304f148
:105660001802dff8fc0606f00bfb08b1012703e087
:10567000a07f002710282adadff8846301207169ef
:1056800041f480517161d4f8ac209047ffb1012002
:1056900004f18c0284f8700004f1480104f1180050
:1056a000fff7c7fb0746a7f58072d4e9000136680b
:1056b00080187f1c7f4206eb8006fff790faa4f863
:1056c0009270361a06f5cc56c4f8cc6002e0a08b76
:1056d000a4f84c00012d02bf94f871000028fff7d8
:1056e0003dfcdff8701b0223486820f00070486022
:1056f0004a6842f000724a6011e194f87010012982
:105700005cdcd4f8b810202304f12802dff850063e
:1057100006f0b6fa68b30127b94e706940f0004050
:1057200040f480507061d4f8ac1001208847002ffd
:1057300041d0022004f18c0284f8700004f1580179
:1057400004f12800fff775fb0746a7f59e72d4e920
:105750000001366880187f1c7f4206eb8006fff749
:105760003efaa4f89670361a06f5cc56c4f8cc600a
:1057700024e094f82e0000271028cddb94f8701058
:10578000012918d1b4f892002030a4f8920000b298
:105790003f2810db94f8710040b99948416921f421
:1057a00080514161d4f8ac2000209047102184f84a
:1057b0007070a177a761a08da4f85c00012d05d1c0
:1057c00094f871000128d8bffff71ffcdff8846a46
:1057d000706820f00070706071680320012d41f046
:1057e0000071716084f86f00dff8b00b31680cd184
:1057f000084040f47f003060f068c0f30902222abc
:105800000cbf2038801cf060f3e0084040f47f00bb
:1058100030600120fdf74ef8b168c0f30b00090bb2
:1058200040ea0130b060e4e094f8700002284fdcf8
:10583000d4f8b410202304f10802dff8240506f0a0
:105840001ffa90b101266e48416941f0004141f4d0
:1058500080514161d4f8ac200120904701f09effb7
:10586000a6b3032084f8700032e0a17b0026102943
:10587000e9db94f87000022828d1b4f896002030b3
:10588000a4f8960000b2c72820db94f8710050b944
:105890005b49dff8e8044a69024000204a61d4f815
:1058a000ac1088470ae0012808d15548416921f425
:1058b00080514161d4f8ac2000209047102184f839
:1058c0007060a177a66184f82e10a662a089a087d7
:1058d000012d5ad0dff87c090423416821f00071c2
:1058e00041604268dff83c1a42f00072426084f87e
:1058f0006f3004686ff31b440c43046079e094f844
:10590000710008b9fff72afbdff84819052348683a
:1059100020f0007048604a6842f000724a6084f8e3
:105920006f300c68dff8780a6ff31b4404430c6097
:105930005fe094f871100129d8bffff766fbdff82c
:105940001459686820f0007068606968062041f0aa
:105950000071696084f86f002a6800206ff31b42b1
:1059600042f47f022a60fcf7a5ffa968c0f30b0090
:10597000090b40ea0130a860e868c0f30902222a56
:105980000cbf2038801ce86033e0fff7b6fb0f2027
:10599000fcf710fd94f86e1094f86c00401e84f82b
:1059a0006c00012918bf022920d194f86a10c0b2f6
:1059b000d4e9002312f1200643f10007c4e900678f
:1059c0001f290cbf0021491c84f86a1010b1fff791
:1059d000d6fd0ee094f87500002184f86f1040b1f8
:1059e00001f082fd002184f8751002e0002084f8a7
:1059f0006f0001b0bde8f040f4e500002032012066
:105a0000200000402de9f04f81b0dff84ca8fff7ef
:105a1000e9fd9af86e1000294bd0dff88829166846
:105a20009af87600b608b600b8b14ff020221120df
:105a30000023136093601032401efad1dff868092a
:105a40000022caf8b000142305208af87620aaf8ac
:105a500090308af86d008af86c20052915dadaf89a
:105a6000b000864206d3301adff84039a0fb03327b
:105a7000d40807e0801bdff83479a0fb0774e40842
:105a8000c4f120049af86c000419491e06290ed8a6
:105a9000dfe801f0040413133c5959008af86c4004
